{
  "contractName": "Faucet",
  "abi": [
    {
      "inputs": [],
      "name": "numOfFunders",
      "outputs": [
        {
          "internalType": "uint256",
          "name": "",
          "type": "uint256"
        }
      ],
      "stateMutability": "view",
      "type": "function",
      "constant": true
    },
    {
      "inputs": [],
      "name": "owner",
      "outputs": [
        {
          "internalType": "address",
          "name": "",
          "type": "address"
        }
      ],
      "stateMutability": "view",
      "type": "function",
      "constant": true
    },
    {
      "inputs": [],
      "name": "test3",
      "outputs": [
        {
          "internalType": "uint256",
          "name": "",
          "type": "uint256"
        }
      ],
      "stateMutability": "pure",
      "type": "function",
      "constant": true
    },
    {
      "inputs": [],
      "name": "testNum",
      "outputs": [
        {
          "internalType": "uint256",
          "name": "",
          "type": "uint256"
        }
      ],
      "stateMutability": "view",
      "type": "function",
      "constant": true
    },
    {
      "stateMutability": "payable",
      "type": "receive",
      "payable": true
    },
    {
      "inputs": [],
      "name": "emitLog",
      "outputs": [
        {
          "internalType": "bytes32",
          "name": "",
          "type": "bytes32"
        }
      ],
      "stateMutability": "pure",
      "type": "function",
      "constant": true
    },
    {
      "inputs": [],
      "name": "addFunds",
      "outputs": [],
      "stateMutability": "payable",
      "type": "function",
      "payable": true
    },
    {
      "inputs": [
        {
          "internalType": "uint256",
          "name": "withdrawAmount",
          "type": "uint256"
        }
      ],
      "name": "withdraw",
      "outputs": [],
      "stateMutability": "nonpayable",
      "type": "function"
    },
    {
      "inputs": [],
      "name": "getAllFunders",
      "outputs": [
        {
          "internalType": "address[]",
          "name": "",
          "type": "address[]"
        }
      ],
      "stateMutability": "view",
      "type": "function",
      "constant": true
    },
    {
      "inputs": [
        {
          "internalType": "uint8",
          "name": "index",
          "type": "uint8"
        }
      ],
      "name": "getFunderAtIndex",
      "outputs": [
        {
          "internalType": "address",
          "name": "",
          "type": "address"
        }
      ],
      "stateMutability": "view",
      "type": "function",
      "constant": true
    }
  ],
  "bytecode": "0x608060405234801561001057600080fd5b50336000806101000a81548173ffffffffffffffffffffffffffffffffffffffff021916908373ffffffffffffffffffffffffffffffffffffffff1602179055506103e8600181905550610951806100696000396000f3fe60806040526004361061008a5760003560e01c80638da5cb5b116100595780638da5cb5b14610152578063a26759cb1461017d578063ae28f1ed14610187578063af7f2c9b146101b2578063f42c13bf146101dd57610091565b80630a8e8e01146100965780630a93cf33146100c15780632e1a7d4d146100fe5780636fbbb55d1461012757610091565b3661009157005b600080fd5b3480156100a257600080fd5b506100ab610208565b6040516100b8919061076e565b60405180910390f35b3480156100cd57600080fd5b506100e860048036038101906100e391906105f8565b610211565b6040516100f591906106f6565b60405180910390f35b34801561010a57600080fd5b50610125600480360381019061012091906105cf565b610251565b005b34801561013357600080fd5b5061013c6102e7565b6040516101499190610711565b60405180910390f35b34801561015e57600080fd5b5061016761042d565b60405161017491906106f6565b60405180910390f35b610185610451565b005b34801561019357600080fd5b5061019c610571565b6040516101a9919061076e565b60405180910390f35b3480156101be57600080fd5b506101c7610577565b6040516101d4919061076e565b60405180910390f35b3480156101e957600080fd5b506101f261057d565b6040516101ff9190610733565b60405180910390f35b60006064905090565b6000600460008360ff16815260200190815260200160002060009054906101000a900473ffffffffffffffffffffffffffffffffffffffff169050919050565b80670de0b6b3a7640000811061029c576040517f08c379a00000000000000000000000000000000000000000000000000000000081526004016102939061074e565b60405180910390fd5b3373ffffffffffffffffffffffffffffffffffffffff166108fc839081150290604051600060405180830381858888f193505050501580156102e2573d6000803e3d6000fd5b505050565b6060600060025467ffffffffffffffff81111561032d577f4e487b7100000000000000000000000000000000000000000000000000000000600052604160045260246000fd5b60405190808252806020026020018201604052801561035b5781602001602082028036833780820191505090505b50905060005b600254811015610425576004600082815260200190815260200160002060009054906101000a900473ffffffffffffffffffffffffffffffffffffffff168282815181106103d8577f4e487b7100000000000000000000000000000000000000000000000000000000600052603260045260246000fd5b602002602001019073ffffffffffffffffffffffffffffffffffffffff16908173ffffffffffffffffffffffffffffffffffffffff1681525050808061041d90610826565b915050610361565b508091505090565b60008054906101000a900473ffffffffffffffffffffffffffffffffffffffff1681565b6000339050600360008273ffffffffffffffffffffffffffffffffffffffff1673ffffffffffffffffffffffffffffffffffffffff16815260200190815260200160002060009054906101000a900460ff1661056e576000600260008154809291906104bc90610826565b9190505590506001600360008473ffffffffffffffffffffffffffffffffffffffff1673ffffffffffffffffffffffffffffffffffffffff16815260200190815260200160002060006101000a81548160ff021916908315150217905550816004600083815260200190815260200160002060006101000a81548173ffffffffffffffffffffffffffffffffffffffff021916908373ffffffffffffffffffffffffffffffffffffffff160217905550505b50565b60015481565b60025481565b60007f48656c6c6f20576f726c64000000000000000000000000000000000000000000905090565b6000813590506105b4816108ed565b92915050565b6000813590506105c981610904565b92915050565b6000602082840312156105e157600080fd5b60006105ef848285016105a5565b91505092915050565b60006020828403121561060a57600080fd5b6000610618848285016105ba565b91505092915050565b600061062d8383610639565b60208301905092915050565b610642816107d3565b82525050565b610651816107d3565b82525050565b600061066282610799565b61066c81856107b1565b935061067783610789565b8060005b838110156106a857815161068f8882610621565b975061069a836107a4565b92505060018101905061067b565b5085935050505092915050565b6106be816107e5565b82525050565b60006106d16023836107c2565b91506106dc8261089e565b604082019050919050565b6106f08161080f565b82525050565b600060208201905061070b6000830184610648565b92915050565b6000602082019050818103600083015261072b8184610657565b905092915050565b600060208201905061074860008301846106b5565b92915050565b60006020820190508181036000830152610767816106c4565b9050919050565b600060208201905061078360008301846106e7565b92915050565b6000819050602082019050919050565b600081519050919050565b6000602082019050919050565b600082825260208201905092915050565b600082825260208201905092915050565b60006107de826107ef565b9050919050565b6000819050919050565b600073ffffffffffffffffffffffffffffffffffffffff82169050919050565b6000819050919050565b600060ff82169050919050565b60006108318261080f565b91507fffffffffffffffffffffffffffffffffffffffffffffffffffffffffffffffff8214156108645761086361086f565b5b600182019050919050565b7f4e487b7100000000000000000000000000000000000000000000000000000000600052601160045260246000fd5b7f43616e6e6f74207769746864726177206d6f7265207468616e20302e3120657460008201527f6865720000000000000000000000000000000000000000000000000000000000602082015250565b6108f68161080f565b811461090157600080fd5b50565b61090d81610819565b811461091857600080fd5b5056fea2646970667358221220f85a513b9239693787955009404235269d293e947890e44ce63fca2950ebb1a864736f6c63430008040033",
  "immutableReferences": {},
  "source": "// SPDX-License-Identifier: MIT\npragma solidity >=0.4.22 <0.9.0;\n\nimport \"./Owned.sol\";\nimport \"./Logger.sol\";\nimport \"./IFaucet.sol\";\n\ncontract Faucet is Owned, Logger, IFaucet {\n    uint public numOfFunders;\n    mapping(address => bool) private funders;\n    mapping(uint => address) private lutFunders;\n\n    modifier limitWithdraw(uint withdrawAmount) {\n        require(\n            withdrawAmount < 1000000000000000000,\n            \"Cannot withdraw more than 0.1 ether\"\n        );\n        _;\n    }\n \n    receive() external payable {}\n\n    function emitLog() public override pure returns(bytes32) {\n        return \"Hello World\";\n    }\n\n    function addFunds() override external payable {\n        address funder = msg.sender;\n\n        if (!funders[funder]) {\n            uint index = numOfFunders++;\n            funders[funder] = true;\n            lutFunders[index] = funder;\n        }\n    }\n\n    function withdraw(uint withdrawAmount) override external limitWithdraw(withdrawAmount) {\n        payable(msg.sender).transfer(withdrawAmount);\n\n    }\n\n    function getAllFunders() external view returns (address[] memory) {\n        address[] memory _funders = new address[](numOfFunders);\n\n        for (uint i = 0; i < numOfFunders; i++) {\n            _funders[i] = lutFunders[i];\n        }\n\n        return _funders;\n    }\n\n    function getFunderAtIndex(uint8 index) external view returns(address) {\n        return lutFunders[index];\n    }\n}",
  "sourcePath": "/Users/dev/Desktop/blockchain/faucet/contracts/FaucetContract.sol",
  "compiler": {
    "name": "solc",
    "version": "0.8.4+commit.c7e474f2.Emscripten.clang"
  },
  "schemaVersion": "3.4.4",
  "updatedAt": "2022-02-02T10:26:22.110Z",
  "networkType": "ethereum",
  "devdoc": {
    "kind": "dev",
    "methods": {},
    "version": 1
  },
  "userdoc": {
    "kind": "user",
    "methods": {},
    "version": 1
  }
}